:020000040800F2
:1000000068A500201D7F0008F1020008F302000827
:10001000F7020008FB020008FF02000800000000D1
:1000200000000000000000000000000003030008C2
:10003000050300080000000007030008090300088A
:10004000377F0008377F0008377F0008377F0008B8
:10005000377F0008377F0008377F0008377F0008A8
:10006000377F0008377F0008E5B50008377F0008B4
:10007000377F0008377F0008377F0008377F000888
:10008000377F0008377F0008377F0008377F000878
:10009000377F0008377F0008377F0008377F000868
:1000A000377F0008377F0008377F0008377F000858
:1000B000BBAA0008377F0008A17B0008377F000833
:1000C000377F0008377F0008377F0008377F000838
:1000D000377F0008937E00088B790008377F00087F
:1000E000377F0008377F0008377F0008377F000818
:1000F000377F0008377F0008377F0008377F000808
:10010000377F0008377F0008377F0008377F0008F7
:10011000377F0008377F0008377F0008377F0008E7
:10012000377F0008377F0008377F0008377F0008D7
:1001300000F002F800F0B0F80AA090E8000C824449
:100140008344AAF10107DA4501D100F0A5F8AFF226
:10015000090EBAE80F0013F0010F18BFFB1A43F0A5
:1001600001031847DC140100FC1401000A444FF09D
:10017000000C10F8013B13F0070408BF10F8014B06
:100180001D1108BF10F8015B641E05D010F8016B4B
:10019000641E01F8016BF9D113F0080F1EBF10F8AF
:1001A000014BAD1C0C1B09D16D1E58BF01F801CBD2
:1001B000FAD505E014F8016B01F8016B6D1EF9D555
:1001C0009142D6D37047000000230024002500266A
:1001D000103A28BF78C1FBD8520728BF30C148BFAA
:1001E0000B6070476E290DF0698270290DF07980DF
:1001F00066290FF0BA8465290FF0B78467290FF0DC
:10020000B48461290FF0B38403681B0A28BF41F04E
:10021000800169290CF0EA8764290CF0E7877529C9
:100220000CF0E4876F290DF0618378290DF045808B
:10023000E9290DF0FB82E4290DF0F882F5290DF093
:10024000F582EF290DF05E83F8290DF044800368F4
:10025000DB0928BF41F0800163290DF06A82732910
:100260000DF06F82E3290DF09D87F3290DF0A28731
:10027000002070471FB50EF039F80400002000215F
:100280000EF0F6FC401C6060002000210EF006FD20
:10029000E0601FBD10B510BD0EF003F81146FFF76A
:1002A000E9FF00F009F80EF0E1F803B4FFF7F2FF00
:1002B00003BC07F091FD000010B507F087FD07F0C3
:1002C0001BFD4FF4E13007F095FD084841684820D8
:1002D000884701F012FE00F009F900F053F909F027
:1002E00092FE0BF0C3FC002010BD0000D4000020E3
:1002F000704700BFFEE700BFFEE700BFFEE700BF9C
:10030000FEE7704770477047704700000CB500204B
:10031000019000906C48006840F480306A490860A1
:1003200000BF6948006800F4003000900198401C4C
:100330000190009818B90198B0F5A06FF1D162480A
:10034000006800F4003010B10120009001E00020AE
:1003500000900098012843D15C48006840F01000EC
:100360005A4908600846006820F003000860084603
:10037000006840F0020008605348406852494860F5
:100380000846406848600846406840F4806048601D
:100390000846406820F47C1048600846406840F4F5
:1003A000E81048600846006840F08070086000BFB0
:1003B0004548006800F000700028F9D042484068C5
:1003C00020F00300404948600846406840F00200C1
:1003D000486000BF3C48406800F00C000828F9D194
:1003E0000CBD10B5FFF792FF10BD10B53648006880
:1003F00040F001003449086008464068344908402C
:100400003149486008460068324908402E49086072
:100410000846006820F4802008600846406820F400
:10042000FE0048604FF41F008860FFF7DAFF4FF0CE
:1004300000602949086010BD10B50021002000228D
:10044000214B5B6803F00C0121B1042906D0082977
:1004500028D107E0214B224C236027E01F4B204C82
:10046000236023E0184B5B6803F47010164B5B6845
:1004700003F48032022303EB904022B9194B43432B
:10048000174C23600DE0104B5B6803F4003323B17D
:10049000144B4343124C236003E0104B4343104C76
:1004A000236003E00D4B0E4C236000BF00BF064BE2
:1004B0005B68C3F303130C4CE15C094B1B68CB4036
:1004C000074C236010BD00000010024000200240D5
:1004D0000000FFF8FFFFF6FE08ED00E000127A00D2
:1004E0000000002000093D000400002008B50121A3
:1004F000342008F04FF84FF48070ADF80000102061
:100500008DF8030003208DF8020069461A4807F0B1
:1005100085FD4FF48071184807F02DFE0420ADF8DA
:1005200000006946154807F079FD0421134807F0DB
:1005300022FE0120ADF800006946114807F06EFD6B
:1005400001210F4807F017FE0420ADF800006946AE
:100550000B4807F063FD0421094807F00CFE082052
:10056000ADF800006946064807F058FD0821044828
:1005700007F001FE08BD0000000801400014014022
:100580000010014008B50121142008F003F80121F2
:10059000374807F014FE4FF40040ADF80000482043
:1005A0008DF803006946334807F038FD2020ADF888
:1005B000000048208DF8030069462F4807F02EFD03
:1005C0000120ADF8000028208DF803006946294875
:1005D00007F024FD08BD10B5044614B101202749D9
:1005E00008702648007868B32021234807F0A9FD49
:1005F00058B14FF400411F4807F0A3FD28B1012175
:100600001C4807F09EFD01281CD10A2007F0B1FB11
:1006100000201A4908702021174807F092FD08B9F8
:10062000012010BD4FF40041124807F08AFD08B9BF
:100630000220F6E701210F4807F083FD012815D1BC
:100640000320EEE720210C4807F07BFD01280DD1A7
:10065000C103084807F075FD012807D101210548AD
:1006600007F06FFD10B90120044908700020D8E799
:10067000000230000008014000100140140000207A
:1006800010B504464FF48071FE4807F076FD4FF434
:100690000071FC4807F071FD2146FB4807F074FD2E
:1006A0008021F84807F069FD8021F64807F063FDD6
:1006B0004FF40071F34807F05EFD10BD10B504461D
:1006C0004FF48071EF4807F056FD4FF40071ED488C
:1006D00007F053FD2146EC4807F056FD8021E9481C
:1006E00007F04BFD8021E74807F045FD4FF400710E
:1006F000E44807F040FD10BD10B54FF08830E249E6
:100700000860091D08600020DF490C310860891568
:10071000DC4807F030FD4FF40071DA4807F02DFD9A
:100720004021D84807F029FDD848808848F689112B
:10073000884202D1022007F0F8FAD34807F00AFDF8
:1007400004464021CF4807F016FD4FF40071CD4814
:1007500007F011FD4FF03330CB490860091D0860E8
:100760004FF6FF70C8490C310860204610BD70B5C7
:1007700004460D462046FFF783FF4FF48071C148C1
:1007800007F0F9FC4FF40071BE4807F0F6FC29466B
:10079000BD4807F0F9FC8021BA4807F0EEFC802143
:1007A000B84807F0E8FC4FF40071B64807F0E3FCE6
:1007B00070BD10B504462046FFF762FFFFF79CFFAF
:1007C00010BD10B5B1490889FFF75AFF10BD10B52B
:1007D00004464FF48071AB4807F0CDFC4FF4007134
:1007E000A84807F0CAFC2146A74807F0CDFC8021A5
:1007F000A44807F0C2FC8021A24807F0BCFC4FF4DB
:100800000071A04807F0B7FC10BD30B5014601F0FB
:100810001F04C1F34513CA0AE50205EB431515444D
:10082000A8B230BD70B504460D469848808849F29C
:100830004131884205D09548808845F21031884280
:1008400075D192494889FFF71BFF4FF480718D489D
:1008500007F091FC4FF400718A4807F08EFC2112DA
:10086000894807F091FC8021864807F086FC8021AA
:10087000844807F080FC4FF40071824807F07BFC4D
:100880004FF480717F4807F076FC4FF400717D488B
:1008900007F073FCE1B27C4807F076FC80217948D0
:1008A00007F06BFC8021774807F065FC4FF400717E
:1008B000744807F060FC75498889FFF7E1FE4FF442
:1008C0008071704807F057FC4FF400716D4807F0D5
:1008D00054FC29126C4807F057FC8021694807F046
:1008E0004CFC8021674807F046FC4FF400716548D6
:1008F00007F041FC4FF48071624807F03CFC4FF474
:100900000071604807F039FCE9B25F4807F03CFC31
:1009100080215C4807F031FC80215A4807F02BFC0D
:100920004FF40071574807F026FC28E1FFE75748CD
:10093000808846F6040188427ED154488079012897
:1009400004D152480088401E001B84B24F49488998
:10095000FFF796FE4FF480714A4807F00CFC4FF405
:100960000071484807F009FC2112474807F00CFCC9
:100970008021444807F001FC8021424807F0FBFB3E
:100980004FF400713F4807F0F6FB4FF480713D488B
:1009900007F0F1FB4FF400713A4807F0EEFBE1B2CB
:1009A000394807F0F1FB8021364807F0E6FB80214B
:1009B000344807F0E0FB4FF40071324807F0DBFBEE
:1009C00032498889FFF75CFE4FF480712D4807F0AB
:1009D000D2FB4FF400712B4807F0CFFB29122A48B5
:1009E00007F0D2FB8021274807F0C7FB802125486C
:1009F00007F0C1FB4FF40071224807F0BCFB4FF435
:100A00008071204807F0B7FB4FF400711D4807F0D4
:100A1000B4FBE9B21C4807F0B7FB8021194807F086
:100A2000ACFB8021174807F0A6FB4FF40071154876
:100A300007F0A1FBA3E0FFE71448808845F21051BE
:100A400088427CD111494889FFF71AFE4FF4807122
:100A50000C4807F090FB4FF400710A4807F08DFB3B
:100A60002112094807F090FB8021064807F085FB1A
:100A70008021044807F07FFB4FF40071014807F024
:100A80007AFB05E000100140000C01407C020020D0
:100A9000F8494989491C88B2FFF7F2FD4FF480718B
:100AA000F54807F068FB4FF40071F34807F065FB69
:100AB000E1B2F24807F068FB8021EF4807F05DFBE8
:100AC0008021ED4807F057FB4FF40071EA4807F02A
:100AD00052FBE8498889FFF7D3FD4FF48071E6485F
:100AE00007F049FB4FF40071E34807F046FB291279
:100AF000E24807F049FB8021DF4807F03EFB8021F8
:100B0000DD4807F038FB4FF40071DB4807F033FB9A
:100B1000D8498989491C88B2FFF7B2FD4FF480712A
:100B2000D54807F028FB4FF40071D34807F025FBA8
:100B3000E9B2D24807F028FB8021CF4800E00BE063
:100B400007F01BFB8021CC4807F015FB4FF4007128
:100B5000C94807F010FB12E0C6488079012804D18B
:100B6000C4480088401E001B84B2C24948892146FF
:100B7000FFF7FDFDBF4988892946FFF7F8FD70BDE5
:100B80002DE9F04105460E46BA480088A84203DD2B
:100B9000B8484088B04202DC0020BDE8F081314610
:100BA0002846FFF73FFEB348808849F2413188422A
:100BB0000BD0B048808846F60401884205D0AD4885
:100BC000808845F21031884203D12E20FFF758FD6E
:100BD0000DE0A848808845F21051884204D14FF4B6
:100BE0003850FFF74DFD02E02220FFF749FD4FF09E
:100BF0008830A2490860091D08604FF6FF709F49C0
:100C00000C31086089159C4807F0B5FA4FF4007163
:100C1000994807F0B2FA4021974807F0AEFA012050
:100C200007F083F84021944807F0A5FA4021924844
:100C300007F0A3FA012007F078F8904807F08AFA45
:100C4000044640218C4807F096FA8A48808849F289
:100C5000413188420BD08748808845F21031884264
:100C600005D08448808845F21051884211D1402136
:100C7000814807F082FA814807F06CFA80464021EB
:100C80007D4807F078FAE7B24FF6FF7000EA0727D1
:100C900011E07848808846F6040188420BD1402153
:100CA000754807F06AFA4021734807F064FA734800
:100CB00007F050FA04464FF400716F4807F05BFAF2
:100CC0004FF033306D490860091D08604FF6FF7022
:100CD0006A490C3108606748808849F225318842AA
:100CE00016D06448808844F23551884210D061485B
:100CF0008088091F88420BD05E48808848F6891199
:100D0000884205D05B4880884BF20551884201D16A
:100D1000204642E75748808849F2413188420BD04B
:100D20005448808845F21031884205D05148808867
:100D300045F21051884207D1E012C002B91240EAD0
:100D4000411040EAE82028E72046FFF75EFD24E74F
:100D500010B54848808849F2413188420BD0454857
:100D6000808846F60401884205D04248808845F2D2
:100D70001031884203D12920FFF782FC0FE03D4863
:100D8000808845F21051884204D14FF42450FFF777
:100D900077FC04E040F273110720FFF7E8FC10BD78
:100DA00010B53448808849F2413188420BD031482F
:100DB000808846F60401884205D02E48808845F296
:100DC0001031884203D12820FFF75AFC0EE0294851
:100DD000808845F21051884204D14FF42050FFF72B
:100DE0004FFC03E000210720FFF7C1FC10BD2DE9F7
:100DF000F0410546002400271E48807901281ED1B5
:100E00001C48808846F60401884218D0082D15D267
:100E1000DFE805F00406080A0C0E101206250DE0A6
:100E200007250BE0042509E0052507E0012505E07D
:100E3000002503E0032501E0022500BF00BF0D48A7
:100E4000808849F24131884211D00A48808846F6AC
:100E5000040188420BD00748808845F2103188424F
:100E600005D00448808845F2105188427ED1082D73
:100E700023D205E07C02002000100140000C01405C
:100E8000DFE805F00406090C0F12151800BF14E086
:100E900044F0800411E044F040040EE044F0C0044B
:100EA0000BE044F0200408E044F0600405E044F066
:100EB000A00402E044F0E00400BF00BFFE488088C8
:100EC00045F21051884202D14FF4585700E03627BE
:100ED000F948808845F21031884207D0F64880886A
:100EE00045F21051884201D044F00804F24880884D
:100EF00046F60401884201D144F0020421463846F6
:100F0000FFF735FC04F0200018B9EB488079012880
:100F10000DD1E9480088E8494988884214DAE64852
:100F200006884088E4490880084646800CE0E2488C
:100F30000088E1494988884206DDDF480688408804
:100F4000DD49088008464680DB48808845F210511C
:100F500088427CD1D8494889FFF792FB4FF48071D1
:100F6000D64807F008F94FF4007100E000E2D348DA
:100F700007F003F90021D24807F006F98021CF4895
:100F800007F0FBF88021CD4807F0F5F84FF4007129
:100F9000CA4807F0F0F8C8494989491C88B2FFF7E8
:100FA0006FFB4FF48071C54807F0E5F84FF400710E
:100FB000C24807F0E2F80021C14807F0E5F88021B7
:100FC000BE4807F0DAF88021BC4807F0D4F84FF4A7
:100FD0000071BA4807F0CFF8B7494989891C88B22F
:100FE000FFF74EFB4FF48071B44807F0C4F84FF49C
:100FF0000071B24807F0C1F8AF480088401EC0F346
:101000000F21AF4807F0C0F88021AC4807F0B5F8D1
:101010008021AA4807F0AFF84FF40071A74807F005
:10102000AAF8A5494989C91C88B2FFF729FB4FF4E2
:101030008071A24807F09FF84FF400719F4807F0B5
:101040009CF89D480078401EC1B29D4800E098E0A1
:1010500007F09AF88021994807F08FF88021974887
:1010600007F089F84FF40071944807F084F892492A
:101070008889FFF705FB4FF48071904807F07BF8F3
:101080004FF400718D4807F078F800218C4807F084
:101090007BF88021894807F070F88021874807F0A5
:1010A0006AF84FF40071854807F065F8824989892C
:1010B000491C88B2FFF7E4FA4FF480717F4807F0CB
:1010C0005AF84FF400717D4807F057F800217C482A
:1010D00007F05AF88021794807F04FF880217748C7
:1010E00007F049F84FF40071744807F044F872496A
:1010F0008989891C88B2FFF7C3FA4FF480716F4861
:1011000007F039F84FF400716C4807F036F86A4878
:101110004088401EC0F30F21694807F035F8802150
:10112000664807F02AF88021644807F024F84FF455
:101130000071624807F01FF85F498989C91C88B2AD
:10114000FFF79EFA4FF480715C4807F014F84FF4F3
:1011500000715A4807F011F857488078401EC1B214
:10116000574807F011F88021544807F006F880210D
:10117000524807F000F84FF40071504806F0FBFFAA
:1011800028E14D494889FFF77BFA4FF480714B48BD
:1011900006F0F1FF4FF40071484806F0EEFF002121
:1011A000474806F0F1FF8021444806F0E6FF802121
:1011B000424806F0E0FF4FF40071404806F0DBFFC4
:1011C0004FF480713D4806F0D6FF4FF400713B4864
:1011D00006F0D3FF00213A4806F0D6FF80213748B9
:1011E00006F0CBFF8021354806F0C5FF4FF40071B3
:1011F000324806F0C0FF4FF48071304806F0BBFF64
:101200004FF400712D4806F0B8FF2B480088401EAF
:10121000C0F30F212A4806F0B7FF8021274806F0C7
:10122000ACFF8021254806F0A6FF4FF4007123484B
:1012300006F0A1FF4FF48071204806F09CFF4FF4A8
:1012400000711E4806F099FF1B480078401EC1B28D
:101250001B4806F099FF8021184806F08EFF802178
:10126000164806F088FF4FF40071144806F083FF1B
:1012700011498889FFF704FA4FF480710F4806F08E
:101280007AFF4FF400710D4806F077FF00210C48FB
:1012900006F07AFF8021094806F06FFF8021074899
:1012A00006F069FF4FF40071044806F064FF4FF444
:1012B0008071024806E000007C020020001001401E
:1012C000000C014006F057FF4FF40071FE4806F095
:1012D00054FF0021FD4806F057FF8021FA4806F030
:1012E0004CFF8021F84806F046FF4FF40071F648A5
:1012F00006F041FF4FF48071F34806F03CFF4FF4D5
:101300000071F14806F039FFF1484088401EC0F3F3
:101310000F21EE4806F038FF8021EB4806F02DFF44
:101320008021E94806F027FF4FF40071E64806F0F7
:1013300022FF4FF48071E44806F01DFF4FF4007166
:10134000E14806F01AFFE2488078401EC1B2DF484B
:1013500006F01AFF8021DC4806F00FFF8021DA48F2
:1013600006F009FF4FF40071D74806F004FF31E0A2
:10137000082D1CD2DFE805F004070A0D0F1215181E
:1013800044F0300413E044F0100410E044F0200472
:101390000DE000BF0BE044F0380408E044F02804FE
:1013A00005E044F0180402E044F0080400BF00BF68
:1013B000C748808848F68911884204D1112746F22F
:1013C0004000044302E0032744F480542146384699
:1013D000FFF7CDF9BDE8F08170B504460D4629460A
:1013E0002046FFF71FFAFFF7ECF94FF48071B6487B
:1013F00006F0C1FE4FF40071B34806F0BEFEB548DA
:101400000188B24806F0C0FE8021AF4806F0B5FE64
:101410008021AD4806F0AFFE4FF40071AA4806F0F7
:10142000AAFE70BD70B504460D461646A8488088D1
:1014300049F24131884205D0A548808845F21031F3
:10144000884275D1A2494889FFF71AF94FF4807193
:101450009D4806F090FE4FF400719B4806F08DFE0B
:1014600021129A4806F090FE8021974806F085FEEA
:101470008021954806F07FFE4FF40071924806F0F7
:101480007AFE4FF48071904806F075FE4FF40071BB
:101490008D4806F072FEE1B28C4806F075FE8021A0
:1014A000894806F06AFE8021874806F064FE4FF402
:1014B0000071854806F05FFE85498889FFF7E0F8EE
:1014C0004FF48071804806F056FE4FF400717E485C
:1014D00006F053FE29127D4806F056FE80217A4818
:1014E00006F04BFE8021784806F045FE4FF400716F
:1014F000754806F040FE4FF48071734806F03BFEDD
:101500004FF40071704806F038FEE9B26F4806F0FB
:101510003BFE80216C4806F030FE80216A4806F0D0
:101520002AFE4FF40071684806F025FE2BE1FFE724
:101530006748808845F2105188427DD164494889C6
:10154000FFF79EF84FF480715F4806F014FE4FF4E9
:1015500000715D4806F011FE21125C4806F014FE91
:101560008021594806F009FE8021574806F003FE05
:101570004FF40071544806F0FEFD55494989491C55
:1015800088B2FFF77DF84FF480714F4806F0F3FD05
:101590004FF400714C4806F0F0FDE1B24B4806F004
:1015A000F3FD8021484806F0E8FD8021464806F01A
:1015B000E2FD4FF40071444806F0DDFD444988899E
:1015C000FFF75EF84FF480713F4806F0D4FD4FF40A
:1015D00000713D4806F0D1FD29123C4806F0D4FDCB
:1015E0008021394806F0C9FD8021374806F0C3FD47
:1015F0004FF40071344806F0BEFD35498989491C15
:1016000088B2FFF73DF84FF480712F4806F0B3FD24
:101610004FF400712C4806F0B0FDE9B22B4806F0FB
:10162000B3FD8021284806F0A8FD8021264806F059
:10163000A2FD4FF4007100E003E0234806F09BFD9B
:10164000A1E02348808846F6040188427ED12048E4
:101650008079012804D11E480088401E001B84B2F6
:101660001B494889FFF70CF84FF48071164806F0C3
:1016700082FD4FF40071144806F07FFD21121348DB
:1016800006F082FD8021104806F077FD80210E488B
:1016900006F071FD4FF400710B4806F06CFD4FF43D
:1016A0008071094806F067FD4FF40071064806F0A6
:1016B00064FDE1B2054806F067FD8021024806F0AE
:1016C0005CFD8021004807E000100140000C014053
:1016D0007C0200201600002006F04DFD4FF4007142
:1016E000FD4806F048FDFD498889FEF7C9FF4FF423
:1016F0008071F94806F03FFD4FF40071F64806F09E
:101700003CFD2912F64806F03FFD8021F24806F024
:1017100034FD8021F04806F02EFD4FF40071EE48B4
:1017200006F029FD4FF48071EB4806F024FD4FF4DC
:101730000071E94806F021FDE9B2E94806F024FD10
:101740008021E54806F019FD802100E008E0E2482C
:1017500006F011FD4FF40071DF4806F00CFD12E0B9
:10176000DE488079012804D1DC480088401E001B37
:1017700084B2DA4948892146FEF7F9FFD7498889BA
:101780002946FEF7F4FF4FF48071D34806F0F5FCCC
:101790004FF40071D04806F0F0FCD0480189D048E1
:1017A00006F0F2FC8021CC4806F0E7FC8021CA4814
:1017B00006F0E1FC4FF40071C74806F0DCFC4FF482
:1017C0008071C54806F0D7FC4FF40071C24806F09E
:1017D000D4FC3146C24806F0D7FC8021BE4806F052
:1017E000CCFC8021BC4806F0C6FC4FF40071BA481E
:1017F00006F0C1FC70BD10B50446002C60D1B7499D
:101800008871F02008804FF4A070488008468088D6
:1018100049F2413188420BD0B048808846F6040135
:10182000884205D0AD48808845F2103188421AD1EF
:101830002C20AA4908812A2048812B20888108462B
:10184000808846F60401884205D0A448808845F285
:101850001031884206D14FF4A070A04908804FF49F
:10186000F070488095E09D48808848F6891188424C
:1018700007D12220994908814E2048814F20888134
:1018800087E09648808845F21051884210D14FF485
:101890003050924908814FF4285048814FF42C5021
:1018A00088814FF4F07008804FF44870488070E0F1
:1018B00022208A490881202048812120888168E0EF
:1018C0000120864988714FF4A0700880F02048807C
:1018D0000846808849F24131884205D07F48808897
:1018E00045F21031884207D12C207C4908812A20FA
:1018F00048812B20888139E07848808846F60401A9
:10190000884207D12C20754908812B2048812A2044
:1019100088812BE07148808848F68911884207D178
:1019200022206E4908814F2048814E2088811DE089
:101930006A48808845F21051884210D14FF43050E7
:10194000664908814FF4285048814FF42C50888113
:101950004FF4487008804FF4F070488006E0222071
:101960005E49088121204881202088815B48808849
:1019700046F60401884205D05848808845F2103167
:10198000884206D14FF4F070544908804FF4A0709B
:1019900048800020FFF72BFA10BD2DE9FF5F0446B9
:1019A0000D4616461F46A019401E86B2E819401E75
:1019B00087B24A48808849F2413188420BD0474873
:1019C000808845F21031884205D04448808846F628
:1019D000040188427ED141494889FEF751FE4FF407
:1019E00080713D4806F0C7FB4FF400713A4806F09D
:1019F000C4FB21123A4806F0C7FB8021364806F0A6
:101A0000BCFB8021344806F0B6FB4FF4007132482D
:101A100006F0B1FB4FF480712F4806F0ACFB4FF499
:101A200000712D4806F0A9FBE1B22D4806F0ACFB91
:101A30008021294806F0A1FB8021274806F09BFB66
:101A40004FF40071244806F096FB4FF48071224851
:101A500006F091FB4FF400711F4806F08EFB311227
:101A60001F4806F091FB80211B4806F086FB802171
:101A7000194806F080FB4FF40071174806F07BFB15
:101A80004FF48071144806F076FB4FF40071124851
:101A900006F073FBF1B2124806F076FB80210E4887
:101AA00006F06BFB80210C4806F065FB4FF40071DB
:101AB000094806F060FB09498889FEF7E1FD4FF40B
:101AC0008071054806F057FB4FF40071024806F09C
:101AD00054FB07E069E00000001001407C02002098
:101AE000000C01402912FE4806F04EFB8021FD4803
:101AF00006F043FB8021FB4806F03DFB4FF40071EC
:101B0000F84806F038FB4FF48071F64806F033FBD6
:101B10004FF40071F34806F030FBE9B2F04806F0EC
:101B200033FB8021EF4806F028FB8021ED4806F0CA
:101B300022FB4FF40071EB4806F01DFB4FF480715F
:101B4000E84806F018FB4FF40071E64806F015FB74
:101B50003912E34806F018FB8021E24806F00DFB3D
:101B60008021E04806F007FB4FF40071DD4806F0E5
:101B700002FB4FF48071DB4806F0FDFA4FF4007170
:101B8000D84806F0FAFAF9B2D54806F0FDFA8021F5
:101B9000D44806F0F2FA8021D24806F0ECFA4FF46D
:101BA0000071D04806F0E7FA53E1CF48808845F24B
:101BB000105188427DD1CC494889FEF761FD4FF430
:101BC0008071C84806F0D7FA4FF40071C54806F096
:101BD000D4FA2112C24806F0D7FA8021C14806F093
:101BE000CCFA8021BF4806F0C6FA4FF40071BD4818
:101BF00006F0C1FABC494989491C88B2FEF740FD8C
:101C00004FF48071B74806F0B6FA4FF40071B5484A
:101C100006F0B3FAE1B2B24806F0B6FA8021B14854
:101C200006F0ABFA8021AF4806F0A5FA4FF4007138
:101C3000AC4806F0A0FAAC494989891C88B2FEF785
:101C40001FFD4FF48071A74806F095FA4FF400711C
:101C5000A44806F092FA3112A14806F095FA8021C4
:101C6000A04806F08AFA80219E4806F084FA4FF4D4
:101C700000719C4806F07FFA9B494989C91C88B2CB
:101C8000FEF7FEFC4FF48071964806F074FA4FF4AC
:101C90000071944806F071FAF1B2914806F074FAB6
:101CA0008021904806F069FA80218E4806F063FA98
:101CB00000E087E04FF400718A4806F05CFA8A4938
:101CC0008889FEF7DDFC4FF48071864806F053FAF0
:101CD0004FF40071834806F050FA2912804806F04C
:101CE00053FA80217F4806F048FA80217D4806F0AB
:101CF00042FA4FF400717B4806F03DFA7A4989892F
:101D0000491C88B2FEF7BCFC4FF48071754806F0A0
:101D100032FA4FF40071734806F02FFAE9B27048B6
:101D200006F032FA80216F4806F027FA80216D48CC
:101D300006F021FA4FF400716A4806F01CFA6A496D
:101D40008989891C88B2FEF79BFC4FF48071654835
:101D500006F011FA4FF40071624806F00EFA3912DB
:101D60005F4806F011FA80215E4806F006FA8021ED
:101D70005C4806F000FA4FF400715A4806F0FBF98F
:101D800059498989C91C88B2FEF77AFC4FF48071E1
:101D9000544806F0F0F94FF40071524806F0EDF99E
:101DA000F9B24F4806F0F0F980214E4806F0E5F907
:101DB00080214C4806F0DFF94FF40071494806F0E5
:101DC000DAF946E04848807901280ED1A846B9469C
:101DD00045480088801B401E80B200904248008821
:101DE000001B401E1FFA80FB03E0A046B146009591
:101DF000BB463D48808848F6891188420DD14FF096
:101E0000440A4420039048EA09201FFA80F8C1469A
:101E1000452002904620019007E04FF0500A5120E3
:101E20000390522002905320019041465046FEF705
:101E30009EFC49460398FEF79AFC00990298FEF72B
:101E400096FC59460198FEF792FC29462046FEF77B
:101E5000E9FCBDE8FF9F70B50446002622480588CE
:101E6000408845432048808846F60401884216D1C0
:101E70001D488079012812D100201B4988712A2031
:101E800048812B20888100210846FEF7CBFC0120E9
:101E9000154988712B2048812A20888103E0002180
:101EA0000846FEF7BFFCFEF78CFC002622E04FF44C
:101EB00080710C4806F05FF94FF40071094806F094
:101EC0005CF92146064806F05FF98021054806F0D6
:101ED00054F98021034806F04EF94FF4007105E0F3
:101EE000000C0140001001407C020020FE4806F07A
:101EF00042F9761CAE42DAD370BD08B50121192033
:101F000006F048FB0121F94806F059F94FF4F86052
:101F1000ADF8000010208DF8030003208DF80200BA
:101F20006946F14806F07AF84FF4F861EE4806F099
:101F300022F94FF6FF70ADF800006946EC4806F054
:101F40006DF84FF6FF71EA4806F015F9322005F0FA
:101F500010FF01210020FEF70AFC322005F009FFE6
:101F60000020FEF726FCE349888008468088FF2889
:101F70000ADB084680884FF6FF71884204D0DD48AE
:101F80008088B0F5134F7CD1D320FEF779FBFEF7A4
:101F9000B3FBFEF7B1FBFEF7AFFBD64988800846DE
:101FA00080884FF6FF7101EA0020D2498880FEF751
:101FB000A3FBD04989880843CE4988800846808899
:101FC00049F2413188426CD0BF20FEF759FBFEF741
:101FD00093FBFEF791FBFEF78FFBFEF78DFBC549E8
:101FE0008880084680884FF6FF7101EA0020C149C9
:101FF0008880FEF781FBBF4989880843BD498880F6
:102000000846808846F6040188424AD0D420FEF76C
:1020100037FBFEF771FBFEF76FFBFEF76DFBB54973
:102020008880084680884FF6FF7101EA0020B14998
:102030008880FEF761FBAF4989880843AD498880F5
:102040000846808845F2103188422AD04FF45A4021
:10205000FEF716FBFEF750FB4FF45B40FEF710FB5C
:10206000FEF74AFBA3498880084680884FF6FF7137
:1020700001EA00209F4988804FF45C40FEF700FB96
:1020800000E00EE0FEF738FB9A4989880843994939
:10209000888008468088B0F5004F02D145F2105084
:1020A00088809448818894A00BF02EF8914880880D
:1020B00049F2413188427CD1CF20FEF7E1FA00207D
:1020C000FEF7FCFAC120FEF7F9FA3020FEF7F6FA27
:1020D000ED20FEF7D5FA6420FEF7F0FA0320FEF7B4
:1020E000EDFA1220FEF7EAFA8120FEF7E7FAE8207F
:1020F000FEF7C6FA8520FEF7E1FA1020FEF7DEFAB9
:102100007A20FEF7DBFACB20FEF7BAFA3920FEF789
:10211000D5FA2C20FEF7D2FA0020FEF7CFFA3420B1
:10212000FEF7CCFA0220FEF7C9FAF720FEF7A8FA6C
:102130002020FEF7C3FAEA20FEF7A2FA0020FEF7FD
:10214000BDFA0020FEF7BAFAC020FEF799FA1B206C
:10215000FEF7B4FAC120FEF793FA0120FEF7AEFABB
:10216000C520FEF78DFA3020FEF7A8FA3020FEF7E2
:10217000A5FAC720FEF784FAB720FEF79FFA3620AB
:10218000FEF77EFA4820FEF799FA3A20FEF778FA31
:102190005520FEF793FAB120FEF772FA0020FEF701
:1021A0008DFA1A20FEF78AFAB620FEF769FA0A209D
:1021B00000E0A9E0FEF782FAA220FEF77FFAF22003
:1021C000FEF75EFA0020FEF779FA2620FEF758FAAD
:1021D0000120FEF773FAE020FEF752FA0F20FEF717
:1021E0006DFA2A20FEF76AFA2820FEF767FA08201F
:1021F000FEF764FA0E20FEF761FA0820FEF75EFA99
:102200005420FEF75BFAA920FEF758FA4320FEF7A8
:1022100055FA0A20FEF752FA0F20FEF74FFA002077
:10222000FEF74CFA0020FEF749FA0020FEF746FAC6
:102230000020FEF743FAE120FEF722FA0020FEF725
:102240003DFA1520FEF73AFA1720FEF737FA072075
:10225000FEF734FA1120FEF731FA0620FEF72EFAC7
:102260002B20FEF72BFA5620FEF728FA3C20FEF72B
:1022700025FA0520FEF722FA1020FEF71FFA0F209C
:10228000FEF71CFA3F20FEF719FA3F20FEF716FA78
:102290000F20FEF713FA2B20FEF7F2F90020FEF7CD
:1022A0000DFA0020FEF70AFA0120FEF707FA3F2098
:1022B000FEF704FA2A20FEF7E3F90020FEF7FEF904
:1022C0000020FEF7FBF90020FEF7F8F9EF20FEF7FB
:1022D000F5F91120FEF7D4F9782005F04AFD292000
:1022E000FEF7CEF903F00CBB0010014000023000F5
:1022F000000C01407C020020204C43442049443A19
:1023000025780D0A00000000FE48808846F604018A
:1023100088427CD11120FEF7B3F9142005F029FD85
:10232000D020FEF7ADF90720FEF7C8F94220FEF7EE
:10233000C5F91D20FEF7C2F9D120FEF7A1F9002052
:10234000FEF7BCF91A20FEF7B9F90920FEF7B6F935
:10235000D220FEF795F90120FEF7B0F92220FEF712
:10236000ADF9C020FEF78CF91020FEF7A7F93B204D
:10237000FEF7A4F90020FEF7A1F90220FEF79EF96E
:102380001120FEF79BF9C520FEF77AF90320FEF72E
:1023900095F9C820FEF774F90020FEF78FF9252083
:1023A000FEF78CF92120FEF789F90520FEF786F962
:1023B0000020FEF783F90A20FEF780F96520FEF77A
:1023C0007DF92520FEF77AF97720FEF777F950207E
:1023D000FEF774F90F20FEF771F90020FEF76EF991
:1023E000F820FEF74DF90120FEF768F9FE20FEF710
:1023F00047F90020FEF762F90220FEF75FF920207E
:10240000FEF73EF93620FEF73BF9082000E02CE00D
:10241000FEF754F93A20FEF733F95520FEF74EF94E
:102420002B20FEF72DF90020FEF748F90020FEF7DB
:1024300045F90120FEF742F93F20FEF73FF92A2037
:10244000FEF71EF90020FEF739F90020FEF736F9F5
:102450000120FEF733F9DF20FEF730F9782005F090
:1024600088FC2920FEF70CF93CE7A648808845F255
:102470001031884240F07C87ED20FEF701F9012001
:10248000FEF71CF9FE20FEF719F9EE20FEF7F8F82A
:10249000DE20FEF713F92120FEF710F9F120FEF7F8
:1024A000EFF80120FEF70AF9DF20FEF7E9F8102027
:1024B000FEF704F9C420FEF7E3F88F20FEF7FEF8DC
:1024C000C620FEF7DDF80020FEF7F8F8E220FEF760
:1024D000F5F8E220FEF7F2F8E220FEF7EFF8BF2071
:1024E000FEF7CEF8AA20FEF7E9F8B020FEF7C8F80C
:1024F0000D20FEF7E3F80020FEF7E0F80D20FEF7D0
:10250000DDF80020FEF7DAF81120FEF7D7F80020FA
:10251000FEF7D4F81920FEF7D1F80020FEF7CEF828
:102520002120FEF7CBF80020FEF7C8F82D20FEF79B
:10253000C5F80020FEF7C2F83D20FEF7BFF80020E6
:10254000FEF7BCF85D20FEF7B9F80020FEF7B6F8FC
:102550005D20FEF7B3F80020FEF7B0F8B120FEF7DB
:102560008FF88020FEF7AAF80020FEF7A7F88B204E
:10257000FEF7A4F80020FEF7A1F89620FEF79EF8DB
:102580000020FEF79BF8B220FEF77AF80020FEF755
:1025900095F80020FEF792F80220FEF78FF8002051
:1025A000FEF78CF80320FEF789F80020FEF786F886
:1025B000B320FEF765F80020FEF780F80020FEF754
:1025C0007DF80020FEF77AF80020FEF777F800206B
:1025D000FEF774F80020FEF771F80020FEF76EF8A1
:1025E0000020FEF76BF80020FEF768F80020FEF7E9
:1025F00065F80020FEF762F80020FEF75FF8002083
:10260000FEF75CF80020FEF759F80020FEF756F8B8
:102610000020FEF753F80020FEF750F80020FEF7E8
:102620004DF80020FEF74AF80020FEF747F800209A
:10263000FEF744F80020FEF741F80020FEF73EF8D0
:102640000020FEF73BF8B420FEF71AF88B20FEF7C7
:1026500035F80020FEF732F89620FEF72FF800201C
:10266000FEF72CF8A120FEF729F80020FEF726F847
:10267000B520FEF705F80220FEF720F80020FEF74F
:102680001DF80320FEF71AF80020FEF717F80420C3
:10269000FEF714F80020FEF711F8B620FDF7F0FF62
:1026A0000020FEF70BF80020FEF708F8B720FDF732
:1026B000E7FF0020FEF702F80020FDF7FFFF3F20B4
:1026C000FDF7FCFF0020FDF7F9FF5E20FDF7F6FFA8
:1026D0000020FDF7F3FF6420FDF7F0FF0020FDF779
:1026E000EDFF8C20FDF7EAFF0020FDF7E7FFAC20AF
:1026F000FDF7E4FF0020FDF7E1FFDC20FDF7DEFF42
:10270000002001E07C020020FDF7D8FF7020FDF7DB
:10271000D5FF0020FDF7D2FF9020FDF7CFFF00206E
:10272000FDF7CCFFEB20FDF7C9FF0020FDF7C6FF4A
:10273000DC20FDF7C3FF0020FDF7C0FFB820FDF748
:102740009FFF0020FDF7BAFF0020FDF7B7FF002034
:10275000FDF7B4FF0020FDF7B1FF0020FDF7AEFF4D
:102760000020FDF7ABFF0020FDF7A8FF0020FDF7DC
:10277000A5FFBA20FDF784FF2420FDF79FFF00206E
:10278000FDF79CFF0020FDF799FF0020FDF796FF65
:10279000C120FDF775FF2020FDF790FF0020FDF719
:1027A0008DFF5420FDF78AFF0020FDF787FFFF20F3
:1027B000FDF784FF0020FDF781FFC220FDF760FFD9
:1027C0000A20FDF77BFF0020FDF778FF0420FDF7CE
:1027D00075FF0020FDF772FFC320FDF751FF3C207D
:1027E000FDF76CFF0020FDF769FF3A20FDF766FF5B
:1027F0000020FDF763FF3920FDF760FF0020FDF7A3
:102800005DFF3720FDF75AFF0020FDF757FF3C2002
:10281000FDF754FF0020FDF751FF3620FDF74EFF76
:102820000020FDF74BFF3220FDF748FF0020FDF7A9
:1028300045FF2F20FDF742FF0020FDF73FFF2C2032
:10284000FDF73CFF0020FDF739FF2920FDF736FF9B
:102850000020FDF733FF2620FDF730FF0020FDF7B5
:102860002DFF2420FDF72AFF0020FDF727FF24205D
:10287000FDF724FF0020FDF721FF2320FDF71EFFB9
:102880000020FDF71BFF3C20FDF718FF0020FDF79F
:1028900015FF3620FDF712FF0020FDF70FFF322055
:1028A000FDF70CFF0020FDF709FF2F20FDF706FFC5
:1028B0000020FDF703FF2C20FDF700FF0020FDF7AF
:1028C000FDFE2920FDF7FAFE0020FDF7F7FE262089
:1028D000FDF7F4FE0020FDF7F1FE2420FDF7EEFEEB
:1028E0000020FDF7EBFE2420FDF7E8FE0020FDF7B9
:1028F000E5FE2320FDF7E2FE0020FDF7DFFEC42009
:10290000FDF7BEFE6220FDF7D9FE0020FDF7D6FEE2
:102910000520FDF7D3FE0020FDF7D0FE8420FDF753
:10292000CDFE0020FDF7CAFEF020FDF7C7FE002017
:10293000FDF7C4FE1820FDF7C1FE0020FDF7BEFE26
:10294000A420FDF7BBFE0020FDF7B8FE1820FDF720
:10295000B5FE0020FDF7B2FE5020FDF7AFFE0020CF
:10296000FDF7ACFE0C20FDF7A9FE0020FDF7A6FE4A
:102970001720FDF7A3FE0020FDF7A0FE9520FDF730
:102980009DFE0020FDF79AFEF320FDF797FE002044
:10299000FDF794FEE620FDF791FE0020FDF78EFE88
:1029A000C520FDF76DFE3220FDF788FE0020FDF703
:1029B00085FE4420FDF782FE0020FDF77FFE6520A6
:1029C000FDF77CFE0020FDF779FE7620FDF776FE10
:1029D0000020FDF773FE8820FDF770FE0020FDF754
:1029E0006DFEC620FDF74CFE2020FDF767FE00209F
:1029F000FDF764FE1720FDF761FE0020FDF75EFE87
:102A00000120FDF75BFE0020FDF758FEC720FDF713
:102A100037FE0020FDF752FE0020FDF74FFE00209C
:102A2000FDF74CFE0020FDF749FEC820FDF728FE0B
:102A30000020FDF743FE0020FDF740FE0020FDF7DB
:102A40003DFE0020FDF73AFEC920FDF719FE0020EB
:102A5000FDF734FE0020FDF731FE0020FDF72EFECD
:102A60000020FDF72BFE0020FDF728FE0020FDF7DB
:102A700025FE0020FDF722FE0020FDF71FFE0020AE
:102A8000FDF71CFE0020FDF719FE0020FDF716FEE5
:102A90000020FDF713FE0020FDF710FE0020FDF7DB
:102AA0000DFE0020FDF70AFE0020FDF707FEE020E6
:102AB000FDF7E6FD1620FDF701FE0020FDF7FEFD07
:102AC0001C20FDF7FBFD0020FDF7F8FD2120FDF7A0
:102AD000F5FD0020FDF7F2FD3620FDF7EFFD0020AB
:102AE000FDF7ECFD4620FDF7E9FD0020FDF7E6FDD2
:102AF0005220FDF7E3FD0020FDF7E0FD6420FDF727
:102B0000DDFD0020FDF7DAFD7A20FDF7D7FD00207E
:102B1000FDF7D4FD8B20FDF7D1FD0020FDF7CEFDA4
:102B20009920FDF7CBFD0020FDF7C8FDA820FDF79B
:102B3000C5FD0020FDF7C2FDB920FDF7BFFD002057
:102B4000FDF7BCFDC420FDF7B9FD0020FDF7B6FD83
:102B5000CA20FDF7B3FD0020FDF7B0FDD220FDF740
:102B6000ADFD0020FDF7AAFDD920FDF7A7FD00204F
:102B7000FDF7A4FDE020FDF7A1FD0020FDF79EFD7F
:102B8000F320FDF79BFD0020FDF798FDE120FDF708
:102B900077FD1620FDF792FD0020FDF78FFD1C202C
:102BA000FDF78CFD0020FDF789FD2220FDF786FD55
:102BB0000020FDF783FD3620FDF780FD0020FDF7A6
:102BC0007DFD4520FDF77AFD0020FDF777FD5220C1
:102BD000FDF774FD0020FDF771FD6420FDF76EFD2B
:102BE0000020FDF76BFD7A20FDF768FD0020FDF762
:102BF00065FD8B20FDF762FD0020FDF75FFD99204C
:102C0000FDF75CFD0020FDF759FDA820FDF756FDFE
:102C10000020FDF753FDB920FDF750FD0020FDF722
:102C20004DFDC420FDF74AFD0020FDF747FDCA20F9
:102C3000FDF744FD0020FDF741FDD220FDF73EFDEC
:102C40000020FDF73BFDD820FDF738FD0020FDF703
:102C500035FDE020FDF732FD0020FDF72FFDF320CC
:102C6000FDF72CFD0020FDF729FDE220FDF708FD12
:102C70000520FDF723FD0020FDF720FD0B20FDF7CB
:102C80001DFD0020FDF71AFD1B20FDF717FD00209C
:102C9000FDF714FD3420FDF711FD0020FDF70EFDBA
:102CA0004420FDF70BFD0020FDF708FD4F20FDF748
:102CB00005FD0020FDF702FD6120FDF7FFFC00206F
:102CC000FDF7FCFC7920FDF7F9FC0020FDF7F6FC90
:102CD0008820FDF7F3FC0020FDF7F0FC9720FDF7BE
:102CE000EDFC0020FDF7EAFCA620FDF7E7FC002044
:102CF000FDF7E4FCB720FDF7E1FC0020FDF7DEFC6A
:102D0000C220FDF7DBFC0020FDF7D8FCC720FDF753
:102D1000D5FC0020FDF7D2FCD120FDF7CFFC002030
:102D2000FDF7CCFCD620FDF7C9FC0020FDF7C6FC62
:102D3000DD20FDF7C3FC0020FDF7C0FCF320FDF70C
:102D4000BDFC0020FDF7BAFCE320FDF799FC05204F
:102D5000FDF7B4FC0020FDF7B1FC0A20FDF7AEFC46
:102D60000020FDF7ABFC1C20FDF7A8FC0020FDF7C0
:102D7000A5FC3320FDF7A2FC0020FDF79FFC4420BA
:102D8000FDF79CFC0020FDF799FC5020FDF796FC18
:102D90000020FDF793FC6220FDF790FC0020FDF77A
:102DA0008DFC7820FDF78AFC0020FDF787FC882049
:102DB000FDF784FC0020FDF781FC9720FDF77EFCE9
:102DC0000020FDF77BFCA620FDF778FC0020FDF736
:102DD00075FCB720FDF772FC0020FDF76FFCC220E8
:102DE000FDF76CFC0020FDF769FCC720FDF766FCD1
:102DF0000020FDF763FCD120FDF760FC0020FDF70B
:102E00005DFCD520FDF75AFC0020FDF757FCDD20C6
:102E1000FDF754FC0020FDF751FCF320FDF74EFCBC
:102E20000020FDF74BFCE420FDF72AFC0120FDF714
:102E300045FC0020FDF742FC0120FDF73FFC00208F
:102E4000FDF73CFC0220FDF739FC0020FDF736FCC5
:102E50002A20FDF733FC0020FDF730FC3C20FDF775
:102E60002DFC0020FDF72AFC4B20FDF727FC00205D
:102E7000FDF724FC5D20FDF721FC0020FDF71EFC82
:102E80007420FDF71BFC0020FDF718FC8420FDF7E3
:102E900015FC0020FDF712FC9320FDF70FFC00202D
:102EA000FDF70CFCA220FDF709FC0020FDF706FC55
:102EB000B320FDF703FC0020FDF700FCBE20FDF76A
:102EC000FDFB0020FDF7FAFBC420FDF7F7FB002017
:102ED000FDF7F4FBCD20FDF7F1FB0020FDF7EEFB45
:102EE000D320FDF7EBFB0020FDF7E8FBDD20FDF72D
:102EF000E5FB0020FDF7E2FBF320FDF7DFFB002000
:102F0000FDF7DCFBE520FDF7BBFB0020FDF7D6FB62
:102F10000020FDF7D3FB0020FDF7D0FB0020FDF7DC
:102F2000CDFB0220FDF7CAFB0020FDF7C7FB2920DF
:102F3000FDF7C4FB0020FDF7C1FB3C20FDF7BEFB05
:102F40000020FDF7BBFB4B20FDF7B8FB0020FDF791
:102F5000B5FB5D20FDF7B2FB0020FDF7AFFB742051
:102F6000FDF7ACFB0020FDF7A9FB8420FDF7A6FBD5
:102F70000020FDF7A3FB9320FDF7A0FB0020FDF749
:102F80009DFBA220FDF79AFB0020FDF797FBB320E5
:102F9000FDF794FB0020FDF791FBBE20FDF78EFBB3
:102FA0000020FDF78BFBC420FDF788FB0020FDF718
:102FB00085FBCD20FDF782FB0020FDF77FFBD320B2
:102FC000FDF77CFB0020FDF779FBDC20FDF776FBAD
:102FD0000020FDF773FBF320FDF770FB0020FDF7E9
:102FE0006DFBE620FDF74CFB1120FDF767FB002091
:102FF000FDF764FB3420FDF761FB0020FDF75EFB6D
:103000005620FDF75BFB0020FDF758FB7620FDF70F
:1030100055FB0020FDF752FB7720FDF74FFB00200A
:10302000FDF74CFB6620FDF749FB0020FDF746FB52
:103030008820FDF743FB0020FDF740FB9920FDF7BA
:103040003DFB0020FDF73AFBBB20FDF737FB0020DE
:10305000FDF734FB9920FDF731FB0020FDF72EFB37
:103060006620FDF72BFB0020FDF728FB5520FDF720
:1030700025FB0020FDF722FB5520FDF71FFB00205C
:10308000FDF71CFB4520FDF719FB0020FDF716FBA3
:103090004320FDF713FB0020FDF710FB4420FDF754
:1030A0000DFB0020FDF70AFBE720FDF7E9FA3220CF
:1030B000FDF704FB0020FDF701FB5520FDF7FEFAAC
:1030C0000020FDF7FBFA7620FDF7F8FA0020FDF767
:1030D000F5FA6620FDF7F2FA0020FDF7EFFA672017
:1030E000FDF7ECFA0020FDF7E9FA6720FDF7E6FAB4
:1030F0000020FDF7E3FA8720FDF7E0FA0020FDF756
:10310000DDFA9920FDF7DAFA0020FDF7D7FABB20A7
:10311000FDF7D4FA0020FDF7D1FA9920FDF7CEFA99
:103120000020FDF7CBFA7720FDF7C8FA0020FDF765
:10313000C5FA4420FDF7C2FA0020FDF7BFFA562079
:10314000FDF7BCFA0020FDF7B9FA2320FDF7B6FA27
:103150000020FDF7B3FA3320FDF7B0FA0020FDF7A9
:10316000ADFA4520FDF7AAFA0020FDF7A7FAE820FE
:10317000FDF786FA0020FDF7A1FA0020FDF79EFA80
:103180009920FDF79BFA0020FDF798FA8720FDF7BC
:1031900095FA0020FDF792FA8820FDF78FFA0020BB
:1031A000FDF78CFA7720FDF789FA0020FDF786FA03
:1031B0006620FDF783FA0020FDF780FA8820FDF7EE
:1031C0007DFA0020FDF77AFAAA20FDF777FA0020B1
:1031D000FDF774FABB20FDF771FA0020FDF76EFAD7
:1031E0009920FDF76BFA0020FDF768FA6620FDF7DD
:1031F00065FA0020FDF762FA5520FDF75FFA00201E
:10320000FDF75CFA5520FDF759FA0020FDF756FA54
:103210004420FDF753FA0020FDF750FA4420FDF753
:103220004DFA0020FDF74AFA5520FDF747FA002035
:10323000FDF744FAE920FDF723FAAA20FDF73EFA4C
:103240000020FDF73BFA0020FDF738FA0020FDF7DB
:1032500035FA0020FDF714FAAA20FDF72FFACF2047
:10326000FDF70EFA0020FDF729FA0020FDF726FAF7
:103270000020FDF723FA0020FDF720FA0020FDF7DB
:103280001DFA0020FDF71AFA0020FDF717FA0020BA
:10329000FDF714FA0020FDF711FA0020FDF70EFAF1
:1032A0000020FDF70BFA0020FDF708FA0020FDF7DB
:1032B00005FA0020FDF702FA0020FDF7FFF90020D3
:1032C000FDF7FCF90020FDF7F9F9F020FDF7D8F93A
:1032D0000020FDF7F3F95020FDF7F0F90020FDF78D
:1032E000EDF90020FDF7EAF90020FDF7E7F9F320FA
:1032F000FDF7C6F90020FDF7E1F9F920FDF7C0F967
:103300000620FDF7DBF91020FDF7D8F92920FDF79D
:10331000D5F90020FDF7D2F93A20FDF7B1F9552093
:10332000FDF7CCF91120FDF7ABF9642004F021FD85
:103330002920FDF7A5F93520FDF7A2F90020FDF7BA
:10334000BDF95120FDF79CF9FF20FDF7B7F9532097
:10335000FDF796F92C20FDF7B1F95520FDF790F90E
:103360008220FDF7ABF92C20FDF78AF902F0C8BAEC
:10337000FE48808845F2105188427DD155214FF496
:103380007040FDF7F4F9AA214FF20100FDF7EFF9C3
:1033900052214FF20200FDF7EAF908214FF2030033
:1033A000FDF7E5F901214FF20400FDF7E0F90D21E9
:1033B0004FF43040FDF7DBF90D214BF20100FDF732
:1033C000D6F90D214BF20200FDF7D1F934214FF46B
:1033D0003640FDF7CCF934214BF20160FDF7C7F917
:1033E00034214BF20260FDF7C2F90D214FF4314058
:1033F000FDF7BDF90D214BF20110FDF7B8F90D21D4
:103400004BF20210FDF7B3F934214FF43740FDF7CA
:10341000AEF934214BF20170FDF7A9F934214BF2DA
:103420000270FDF7A4F900214FF43240FDF79FF937
:1034300000214BF20120FDF79AF900214BF2022006
:10344000FDF795F924214FF43840FDF790F9242138
:103450004BF60100FDF78BF924214BF60200FDF736
:1034600086F901214FF43F40FDF781F90F214FF418
:103470003340FDF77CF900E0FDE30F214BF2013012
:10348000FDF775F90F214BF20230FDF770F9342189
:103490004FF43940FDF76BF934214BF60110FDF77D
:1034A00066F934214BF60210FDF761F908214FF45B
:1034B0003540FDF75CF908214BF20150FDF757F953
:1034C00008214BF20250FDF752F903214FF442401C
:1034D000FDF74DF924214FF43A40FDF748F9242136
:1034E0004BF60120FDF743F924214BF60220FDF7AE
:1034F0003EF900214FF43C40FDF739F978214BF6B5
:103500000140FDF734F900214BF60240FDF72FF999
:1035100000214FF43D40FDF72AF978214BF6015088
:10352000FDF725F900214BF60250FDF720F90021A7
:103530004FF43E40FDF71BF964214BF60160FDF7A7
:1035400016F900214FF45140FDF711F933214DF2E6
:103550000110FDF70CF900214DF20210FDF707F9FB
:1035600034214DF20310FDF702F900214DF2041051
:10357000FDF7FDF83A214DF20510FDF7F8F80021AE
:103580004DF20610FDF7F3F84A214DF20710FDF752
:10359000EEF800214DF20810FDF7E9F85C214DF23C
:1035A0000910FDF7E4F800214DF20A10FDF7DFF8ED
:1035B00081214DF20B10FDF7DAF800214DF20C10CD
:1035C000FDF7D5F8A6214DF20D10FDF7D0F800213A
:1035D0004DF20E10FDF7CBF8E5214DF20F10FDF77F
:1035E000C6F801214DF21010FDF7C1F813214DF27C
:1035F0001110FDF7BCF801214DF21210FDF7B7F8DC
:1036000054214DF21310FDF7B2F801214DF21410C0
:10361000FDF7ADF882214DF21510FDF7A8F8012154
:103620004DF21610FDF7A3F8CA214DF21710FDF761
:103630009EF802214DF21810FDF799F800214DF285
:103640001910FDF794F802214DF21A10FDF78FF8CA
:1036500001214DF21B10FDF78AF802214DF21C10DA
:10366000FDF785F834214DF21D10FDF780F8022199
:103670004DF21E10FDF77BF867214DF21F10FDF78C
:1036800076F802214DF22010FDF771F884214DF2F9
:103690002110FDF76CF802214DF22210FDF767F8BA
:1036A000A4214DF22310FDF762F802214DF22410FF
:1036B000FDF75DF8B7214DF22510FDF758F802210E
:1036C0004DF22610FDF753F8CF214DF22710FDF7EC
:1036D0004EF802214DF22810FDF749F8DE214DF297
:1036E0002910FDF744F802214DF22A10FDF73FF8AA
:1036F000F2214DF22B10FDF73AF802214DF22C1079
:10370000FDF735F8FE214DF22D10FDF730F80321BD
:103710004DF22E10FDF72BF810214DF22F10FDF772
:1037200026F803214DF23010FDF721F833214DF238
:103730003110FDF71CF803214DF23210FDF717F898
:103740006D214DF23310FDF712F800214FF4524075
:10375000FDF70DF833214DF20120FDF708F80021A7
:103760004DF20220FDF703F8342101E07C02002035
:103770004DF20320FCF7FBFF00214DF20420FCF783
:10378000F6FF3A214DF20520FCF7F1FF00214DF242
:103790000620FCF7ECFF4A214DF20720FCF7E7FF7B
:1037A00000214DF20820FCF7E2FF5C214DF20920D8
:1037B000FCF7DDFF00214DF20A20FCF7D8FF812144
:1037C0004DF20B20FCF7D3FF00214DF20C20FCF74B
:1037D000CEFFA6214DF20D20FCF7C9FF00214DF2CE
:1037E0000E20FCF7C4FFE5214DF20F20FCF7BFFFD0
:1037F00001214DF21020FCF7BAFF13214DF21120E8
:10380000FCF7B5FF01214DF21220FCF7B0FF542167
:103810004DF21320FCF7ABFF01214DF21420FCF711
:10382000A6FF82214DF21520FCF7A1FF01214DF2E8
:103830001620FCF79CFFCA214DF21720FCF797FFDA
:1038400002214DF21820FCF792FF00214DF21920C1
:10385000FCF78DFF02214DF21A20FCF788FF0121B1
:103860004DF21B20FCF783FF02214DF21C20FCF7D8
:103870007EFF34214DF21D20FCF779FF02214DF22D
:103880001E20FCF774FF67214DF21F20FCF76FFF2D
:1038900002214DF22020FCF76AFF84214DF2212005
:1038A000FCF765FF02214DF22220FCF760FFA42106
:1038B0004DF22320FCF75BFF02214DF22420FCF7A0
:1038C00056FFB7214DF22520FCF751FF02214DF2A2
:1038D0002620FCF74CFFCF214DF22720FCF747FFB5
:1038E00002214DF22820FCF742FFDE214DF2292073
:1038F000FCF73DFF02214DF22A20FCF738FFF221B0
:103900004DF22B20FCF733FF02214DF22C20FCF767
:103910002EFFFE214DF22D20FCF729FF03214DF251
:103920002E20FCF724FF10214DF22F20FCF71FFF63
:1039300003214DF23020FCF71AFF33214DF23120E4
:10394000FCF715FF03214DF23220FCF710FF6D212B
:103950004DF23320FCF70BFF00214FF45340FCF7EE
:1039600006FF33214DF20130FCF701FF00214DF23B
:103970000230FCF7FCFE34214DF20330FCF7F7FE79
:1039800000214DF20430FCF7F2FE3A214DF20530F1
:10399000FCF7EDFE00214DF20630FCF7E8FE4A216F
:1039A0004DF20730FCF7E3FE00214DF20830FCF742
:1039B000DEFE5C214DF20930FCF7D9FE00214DF20C
:1039C0000A30FCF7D4FE81214DF20B30FCF7CFFE1C
:1039D00000214DF20C30FCF7CAFEA6214DF20D304D
:1039E000FCF7C5FE00214DF20E30FCF7C0FEE521CC
:1039F0004DF20F30FCF7BBFE01214DF21030FCF709
:103A0000B6FE13214DF21130FCF7B1FE01214DF24B
:103A10001230FCF7ACFE54214DF21330FCF7A7FE38
:103A200001214DF21430FCF7A2FE82214DF2153037
:103A3000FCF79DFE01214DF21630FCF798FECA21DD
:103A40004DF21730FCF793FE02214DF21830FCF7CF
:103A50008EFE00214DF21930FCF789FE02214DF255
:103A60001A30FCF784FE01214DF21B30FCF77FFE7B
:103A700002214DF21C30FCF77AFE34214DF21D304C
:103A8000FCF775FE02214DF21E30FCF770FE672137
:103A90004DF21F30FCF76BFE02214DF22030FCF797
:103AA00066FE84214DF22130FCF761FE02214DF2C9
:103AB0002230FCF75CFEA4214DF22330FCF757FEC8
:103AC00002214DF22430FCF752FEB7214DF2253091
:103AD000FCF74DFE02214DF22630FCF748FECF21C7
:103AE0004DF22730FCF743FE02214DF22830FCF75F
:103AF0003EFEDE214DF22930FCF739FE02214DF267
:103B00002A30FCF734FEF2214DF22B30FCF72FFE69
:103B100002214DF22C30FCF72AFEFE214DF22D3011
:103B2000FCF725FE03214DF22E30FCF720FE10217C
:103B30004DF22F30FCF71BFE03214DF23030FCF725
:103B400016FE33214DF23130FCF711FE03214DF208
:103B50003230FCF70CFE6D214DF23330FCF707FEDE
:103B600000214FF45440FCF702FE33214DF2014096
:103B7000FCF7FDFD00214DF20240FCF7F8FD342179
:103B80004DF20340FCF7F3FD00214DF20440FCF739
:103B9000EEFD3A214DF20540FCF7E9FD00214DF222
:103BA0000640FCF7E4FD4A214DF20740FCF7DFFD3B
:103BB00000214DF20840FCF7DAFD5C214DF209408E
:103BC000FCF7D5FD00214DF20A40FCF7D0FD812124
:103BD0004DF20B40FCF7CBFD00214DF20C40FCF701
:103BE000C6FDA6214DF20D40FCF7C1FD00214DF2AE
:103BF0000E40FCF7BCFDE5214DF20F40FCF7B7FD90
:103C000001214DF21040FCF7B2FD13214DF211409D
:103C1000FCF7ADFD01214DF21240FCF7A8FD542147
:103C20004DF21340FCF7A3FD01214DF21440FCF7C7
:103C30009EFD82214DF21540FCF799FD01214DF2C8
:103C40001640FCF794FDCA214DF21740FCF78FFD9A
:103C500002214DF21840FCF78AFD00214DF2194077
:103C6000FCF785FD02214DF21A40FCF780FD012191
:103C70004DF21B4000E006E3FCF779FD02214DF216
:103C80001C40FCF774FD34214DF21D40FCF76FFD24
:103C900002214DF21E40FCF76AFD67214DF21F40E4
:103CA000FCF765FD02214DF22040FCF760FD842108
:103CB0004DF22140FCF75BFD02214DF22240FCF762
:103CC00056FDA4214DF22340FCF751FD02214DF297
:103CD0002440FCF74CFDB7214DF22540FCF747FD91
:103CE00002214DF22640FCF742FDCF214DF2274044
:103CF000FCF73DFD02214DF22840FCF738FDDE21A6
:103D00004DF22940FCF733FD02214DF22A40FCF729
:103D10002EFDF2214DF22B40FCF729FD02214DF240
:103D20002C40FCF724FDFE214DF22D40FCF71FFD39
:103D300003214DF22E40FCF71AFD10214DF22F40C9
:103D4000FCF715FD03214DF23040FCF710FD332147
:103D50004DF23140FCF70BFD03214DF23240FCF7F0
:103D600006FD6D214DF23340FCF701FD00214FF4BB
:103D70005540FCF7FCFC33214DF20150FCF7F7FCF9
:103D800000214DF20250FCF7F2FC34214DF20350B9
:103D9000FCF7EDFC00214DF20450FCF7E8FC3A2161
:103DA0004DF20550FCF7E3FC00214DF20650FCF704
:103DB000DEFC4A214DF20750FCF7D9FC00214DF200
:103DC0000850FCF7D4FC5C214DF20950FCF7CFFC05
:103DD00000214DF20A50FCF7CAFC81214DF20B5034
:103DE000FCF7C5FC00214DF20C50FCF7C0FCA621ED
:103DF0004DF20D50FCF7BBFC00214DF20E50FCF7CC
:103E0000B6FCE5214DF20F50FCF7B1FC01214DF25B
:103E10001050FCF7ACFC13214DF21150FCF7A7FC3D
:103E200001214DF21250FCF7A2FC54214DF2135027
:103E3000FCF79DFC01214DF21450FCF798FC822107
:103E40004DF21550FCF793FC01214DF21650FCF792
:103E50008EFCCA214DF21750FCF789FC02214DF26D
:103E60001850FCF784FC00214DF21950FCF77FFC40
:103E700002214DF21A50FCF77AFC01214DF21B5041
:103E8000FCF775FC02214DF21C50FCF770FC34214C
:103E90004DF21D50FCF76BFC02214DF21E50FCF759
:103EA00066FC67214DF21F50FCF761FC02214DF2C8
:103EB0002050FCF75CFC84214DF22150FCF757FCAC
:103EC00002214DF22250FCF752FCA4214DF2235066
:103ED000FCF74DFC02214DF22450FCF748FCB721C1
:103EE0004DF22550FCF743FC02214DF22650FCF721
:103EF0003EFCCF214DF22750FCF739FC02214DF258
:103F00002850FCF734FCDE214DF22950FCF72FFC41
:103F100002214DF22A50FCF72AFCF2214DF22B50DF
:103F2000FCF725FC02214DF22C50FCF720FCFE2171
:103F30004DF22D50FCF71BFC03214DF22E50FCF7E7
:103F400016FC10214DF22F50FCF711FC03214DF20D
:103F50003050FCF70CFC33214DF23150FCF707FCDC
:103F600003214DF23250FCF702FC6D214DF233502B
:103F7000FCF7FDFB00214FF45640FCF7F8FB332122
:103F80004DF20160FCF7F3FB00214DF20260FCF7FB
:103F9000EEFB34214DF20360FCF7E9FB00214DF20A
:103FA0000460FCF7E4FB3A214DF20560FCF7DFFB0F
:103FB00000214DF20660FCF7DAFB4A214DF2076062
:103FC000FCF7D5FB00214DF20860FCF7D0FB5C212B
:103FD0004DF20960FCF7CBFB00214DF20A60FCF7C3
:103FE000C6FB81214DF20B60FCF7C1FB00214DF2B5
:103FF0000C60FCF7BCFBA6214DF20D60FCF7B7FB93
:1040000000214DF20E60FCF7B2FBE5214DF20F608E
:10401000FCF7ADFB01214DF21060FCF7A8FB13216A
:104020004DF21160FCF7A3FB01214DF21260FCF789
:104030009EFB54214DF21360FCF799FB01214DF2D8
:104040001460FCF794FB82214DF21560FCF78FFBA6
:1040500001214DF21660FCF78AFBCA214DF2176070
:10406000FCF785FB02214DF21860FCF780FB002174
:104070004DF21960FCF77BFB02214DF21A60FCF750
:1040800076FB01214DF21B60FCF771FB02214DF222
:104090001C60FCF76CFB34214DF21D60FCF767FBE4
:1040A00002214DF21E60FCF762FB67214DF21F609A
:1040B000FCF75DFB02214DF22060FCF758FB8421E8
:1040C0004DF22160FCF753FB02214DF22260FCF718
:1040D0004EFBA4214DF22360FCF749FB02214DF277
:1040E0002460FCF744FBB7214DF22560FCF73FFB51
:1040F00002214DF22660FCF73AFBCF214DF22760FA
:10410000FCF735FB02214DF22860FCF730FBDE2185
:104110004DF22960FCF72BFB02214DF22A60FCF7DF
:1041200026FBF2214DF22B60FCF721FB02214DF220
:104130002C60FCF71CFBFE214DF22D60FCF717FBF9
:1041400003214DF22E60FCF712FB10214DF22F607F
:10415000FCF70DFB03214DF23060FCF708FB332127
:104160004DF23160FCF703FB03214DF23260FCF7A6
:10417000FEFA6D214DF23360FCF7F9FA55214FF448
:104180007040FCF7F4FAAA214FF20100FCF7EFFAB5
:1041900052214FF20200FCF7EAFA08214FF2030025
:1041A000FCF7E5FA00214FF20400FCF7E0FACC211D
:1041B0004FF43140FCF7DBFA00214BF20110FCF721
:1041C000D6FA05214FF43640FCF7D1FA70214FF4AE
:1041D0003740FCF7CCFA70214BF20170FCF7C7FABC
:1041E00001214FF43840FCF7C2FA03214BF60100DD
:1041F000FCF7BDFA03214BF60200FCF7B8FA0321E5
:104200004BF60300FCF7B3FA02214FF43C40FCF7F5
:10421000AEFA00214BF60140FCF7A9FA00214BF65B
:104220000240FCF7A4FAD0214FF44940FCF79FFA72
:1042300002214CF60110FCF79AFA50214CF60210BC
:10424000FCF795FA50214CF60310FCF790FA502138
:104250004CF60410FCF78BFA00214FF45450FCF795
:1042600086FA55214FF46850FCF781FA4FF48850D4
:10427000FCF706FA782003F058FD4FF42450FCF7C1
:10428000FFF901F03DBBFE48808849F225318842A4
:104290007ED147F6F001E520FCF769FA4FF4807112
:1042A0000120FCF764FA4FF4E0610220FCF75FFAAA
:1042B00041F230010320FCF75AFA00210420FCF7F8
:1042C00056FA40F202210820FCF751FA0021092099
:1042D000FCF74DFA00210A20FCF749FA00210C20D6
:1042E000FCF745FA00210D20FCF741FA00210F20D0
:1042F000FCF73DFA00211020FCF739FA07211120C4
:10430000FCF735FA00211220FCF731FA00211320C6
:10431000FCF72DFA00210720FCF729FA41F2906101
:104320001020FCF724FA40F227211120FCF71FFA95
:104330009D211220FCF71BFA4FF4C8511320FCF703
:1043400016FA25212920FCF712FA0D212B20FCF763
:104350000EFA07213020FCF70AFA40F2033131202F
:10436000FCF705FA03213220FCF701FA40F206219E
:104370003520FCF7FCF908213620FCF7F8F940F26B
:1043800006413720FCF7F3F94FF44171382000E083
:1043900057E0FCF7ECF907213920FCF7E8F940F287
:1043A00002613C20FCF7E3F908213D20FCF7DFF92E
:1043B00000215020FCF7DBF9EF215120FCF7D7F961
:1043C00000215220FCF7D3F940F23F115320FCF7B3
:1043D000CEF94FF427416020FCF7C9F90121612093
:1043E000FCF7C5F900216A20FCF7C1F90021802003
:1043F000FCF7BDF900218120FCF7B9F900218220EA
:10440000FCF7B5F900218320FCF7B1F900218420E5
:10441000FCF7ADF900218520FCF7A9F910219020C7
:10442000FCF7A5F94FF4C0619220FCF7A0F940F227
:1044300033110720FCF79BF922210020FCF797F9A4
:104440001FE78F48808849F2283188427ED141F2A7
:104450008F01EC20FCF78BF941F23421EF20FCF7BF
:1044600086F94FF480710120FCF781F94FF4E06187
:104470000220FCF77CF941F230010320FCF777F9C8
:1044800000210420FCF773F940F202210820FCF718
:104490006EF900210920FCF76AF900210A20FCF7D7
:1044A00066F901210C20FCF762F900210D20FCF7D0
:1044B0005EF900210F20FCF75AF900211020FCF7CB
:1044C00056F907211120FCF752F900211220FCF7C0
:1044D0004EF900211320FCF74AF901210720FCF7CF
:1044E00046F9322003F045FC41F290411020FCF7E0
:1044F0003EF940F227211120FCF739F9322003F070
:1045000038FC8A211220FCF732F9322003F031FC0A
:104510004FF4D0511320FCF72AF906212920FCF78B
:1045200026F90D212B20FCF722F9322003F021FC83
:1045300000212020FCF71BF900212120FCF717F9AE
:10454000322003F016FC0021302000E074E0FCF77C
:104550000EF940F204613120FCF709F940F205310F
:104560003220FCF704F900213520FCF700F940F671
:1045700009413620FCF7FBF84FF401713720FCF7B6
:10458000F6F840F201313820FCF7F1F840F20771FB
:104590003920FCF7ECF800213C20FCF7E8F840F665
:1045A0000A213D20FCF7E3F8322003F0E2FB002172
:1045B0005020FCF7DCF8EF215120FCF7D8F800215F
:1045C0005220FCF7D4F840F23F115320FCF7CFF80B
:1045D0004FF427416020FCF7CAF801216120FCF765
:1045E000C6F800216A20FCF7C2F800218020FCF701
:1045F000BEF800218120FCF7BAF800218220FCF7E8
:10460000B6F800218320FCF7B2F800218420FCF7E3
:10461000AEF800218520FCF7AAF810219020FCF7C5
:10462000A6F84FF4C0619220FCF7A1F840F23311D4
:104630000720FCF79CF824E61148808849F22531D0
:1046400088427CD147F6F001E520FCF790F84FF462
:1046500080710120FCF78BF84FF4E0610220FCF739
:1046600086F841F230010320FCF781F80021042094
:10467000FCF77DF840F202210820FCF778F801E011
:104680007C02002000210920FCF771F800210A209B
:10469000FCF76DF800210C20FCF769F800210D20D3
:1046A000FCF765F800210F20FCF761F800211020CD
:1046B000FCF75DF807211120FCF759F800211220C2
:1046C000FCF755F800211320FCF751F800210720D2
:1046D000FCF74DF841F290611020FCF748F840F2E9
:1046E00027211120FCF743F89D211220FCF73FF809
:1046F0004FF4C8511320FCF73AF825212920FCF784
:1047000036F80D212B20FCF732F807213020FCF77A
:104710002EF840F203313120FCF729F80321322032
:10472000FCF725F840F206213520FCF720F8082197
:104730003620FCF71CF840F20641372000E05CE030
:10474000FCF715F84FF441713820FCF710F80721F9
:104750003920FCF70CF840F202613C20FCF707F826
:1047600008213D20FCF703F800215020FBF7FFFF54
:10477000EF215120FBF7FBFF00215220FBF7F7FF51
:1047800040F23F115320FBF7F2FF4FF42741602026
:10479000FBF7EDFF01216120FBF7E9FF00216A2013
:1047A000FBF7E5FF00218020FBF7E1FF00218120DE
:1047B000FBF7DDFF00218220FBF7D9FF00218320DA
:1047C000FBF7D5FF00218420FBF7D1FF00218520D6
:1047D000FBF7CDFF10219020FBF7C9FF4FF4C0611C
:1047E0009220FBF7C4FF40F233110720FBF7BFFF15
:1047F00022210020FBF7BBFF43E5FE48808849F2F9
:10480000283188427ED141F28F01EC20FBF7AFFFC7
:1048100041F23421EF20FBF7AAFF4FF48071012011
:10482000FBF7A5FF4FF4E0610220FBF7A0FF41F288
:1048300030010320FBF79BFF00210420FBF797FFCB
:1048400040F202210820FBF792FF00210920FBF72C
:104850008EFF00210A20FBF78AFF01210C20FBF7C5
:1048600086FF00210D20FBF782FF00210F20FBF7C0
:104870007EFF00211020FBF77AFF07211120FBF7B4
:1048800076FF00211220FBF772FF00211320FBF7B7
:104890006EFF01210720FBF76AFF322003F069FA5F
:1048A00041F290411020FBF762FF40F227211120D6
:1048B000FBF75DFF322003F05CFA8A211220FBF740
:1048C00056FF322003F055FA4FF4D0511320FBF776
:1048D0004EFF06212920FBF74AFF0D212B20FBF775
:1048E00046FF322003F045FA00212020FBF73FFF6E
:1048F00000212120FBF73BFF322003F03AFA002190
:10490000302000E074E0FBF732FF40F20461312018
:10491000FBF72DFF40F205313220FBF728FF002185
:104920003520FBF724FF40F609413620FBF71FFF37
:104930004FF401713720FBF71AFF40F201313820A4
:10494000FBF715FF40F207713920FBF710FF00213C
:104950003C20FBF70CFF40F60A213D20FBF707FF48
:10496000322003F006FA00215020FBF700FFEF2170
:104970005120FBF7FCFE00215220FBF7F8FE40F22D
:104980003F115320FBF7F3FE4FF427416020FBF764
:10499000EEFE01216120FBF7EAFE00216A20FBF711
:1049A000E6FE00218020FBF7E2FE00218120FBF7DC
:1049B000DEFE00218220FBF7DAFE00218320FBF7D8
:1049C000D6FE00218420FBF7D2FE00218520FBF7D4
:1049D000CEFE10219020FBF7CAFE4FF4C06192205A
:1049E000FBF7C5FE40F233110720FBF7C0FE48E499
:1049F0008048808849F2203188427DD100210846D4
:104A0000FBF7B5FE4FF480710120FBF7B0FE4FF4C9
:104A1000E0610220FBF7ABFE41F230010320FBF71F
:104A2000A6FE00210420FBF7A2FE40F2022108208E
:104A3000FBF79DFE00210920FBF799FE00210A20CB
:104A4000FBF795FE01210C20FBF791FE00210D20C4
:104A5000FBF78DFE00210F20FBF789FE322003F0CB
:104A600088F940F201110720FBF781FE322003F0A4
:104A700080F94FF486511020FBF779FE07211120B1
:104A8000FBF775FE4FF488711220FBF770FE4FF4B0
:104A900030611320FBF76BFE00212920FBF767FE36
:104AA00044F210012B20FBF762FE00215020FBF79F
:104AB0005EFEEF215120FBF75AFE00215220FBF74A
:104AC00056FE40F23F115320FBF751FE4FF41C51AC
:104AD0006020FBF74CFE01216120FBF748FE00211E
:104AE0006A20FBF744FE00218020FBF740FE0021F6
:104AF0008120FBF73CFE00E02EE000218220FBF746
:104B000036FE00218320FBF732FE00218420FBF7D4
:104B10002EFE00218520FBF72AFE10219020FBF7B6
:104B200026FE00219220FBF722FE01219320FBF7B5
:104B30001EFE4FF488719520FBF719FE0021972087
:104B4000FBF715FE00219820FBF711FE40F27311D0
:104B50000720FBF70CFE73E42648808849F23131C8
:104B600088427DD141F21401E720FBF700FE4FF4AB
:104B700080710120FBF7FBFD4FF400710220FBF771
:104B8000F6FD41F238010320FBF7F1FD40F202216E
:104B90000820FBF7ECFD00210920FBF7E8FD0021D0
:104BA0000A20FBF7E4FD00210C20FBF7E0FD0021CB
:104BB0000D20FBF7DCFD00210F20FBF7D8FD0021C5
:104BC0001020FBF7D4FD07211120FBF7D0FD0021B9
:104BD0001220FBF7CCFD00211320FBF7C8FDC820F5
:104BE00003F0C7F841F290611020FBF7C0FD40F2DE
:104BF000272101E07C0200201120FBF7B8FD3220C4
:104C000003F0B7F80C211220FBF7B1FD322003F0BE
:104C1000B0F84FF400611320FBF7A9FD1121292002
:104C2000FBF7A5FD0B212B20FBF7A1FD322003F0A4
:104C3000A0F800212020FBF79AFD40F23F1121202F
:104C4000FBF795FD00213020FBF791FD4FF48371B8
:104C50003120FBF78CFD00213220FBF788FD00E0BE
:104C600067E04FF401713520FBF781FD41F20A61E5
:104C70003620FBF77CFD40F207713720FBF777FD0C
:104C80004FF483713820FBF772FD40F20771392031
:104C9000FBF76DFD40F202413C20FBF768FD40F65A
:104CA0000F413D20FBF763FD00215020FBF75FFD26
:104CB000EF215120FBF75BFD00215220FBF757FD50
:104CC00040F23F115320FBF752FD4FF41C5160207E
:104CD000FBF74DFD01216120FBF749FD00216A2012
:104CE000FBF745FD00218020FBF741FD00218120DD
:104CF000FBF73DFD00218220FBF739FD00218320D9
:104D0000FBF735FD00218420FBF731FD00218520D4
:104D1000FBF72DFD10219020FBF729FD4FF4C0611A
:104D20009220FBF724FD40F233110720FBF71FFD13
:104D300081E4FE48808845F2084188427ED14FF4E4
:104D400080710120FBF713FD4FF4E0610220FBF7B7
:104D50000EFD41F230010320FBF709FD0021042084
:104D6000FBF705FD40F207210820FBF700FD0021BD
:104D70000920FBF7FCFC00210A20FBF7F8FC0021CE
:104D80000C20FBF7F4FC00210D20FBF7F0FC0021C8
:104D90000F20FBF7ECFC142002F0EBFF41F2B061B6
:104DA0001020FBF7E4FC01211120FBF7E0FC0121BE
:104DB0001720FBF7DCFC4FF49C711220FBF7D7FCAB
:104DC0004FF400611320FBF7D2FC09212920FBF7E7
:104DD000CEFC09212A20FBF7CAFC0021A420FBF706
:104DE000C6FC00215020FBF7C2FCEF215120FBF74D
:104DF000BEFC00215220FBF7BAFC40F23F115320C9
:104E0000FBF7B5FC4FF41C516020FBF7B0FC01210F
:104E10006120FBF7ACFC00216A20FBF7A8FC002115
:104E20008020FBF7A4FC00218120FBF7A0FC0021DF
:104E30008220FBF79CFC0021832000E023E0FBF7AD
:104E400096FC00218420FBF792FC00218520FBF7D3
:104E50008EFC13219020FBF78AFC00219220FBF7A7
:104E600086FC03219320FBF782FC4FF48871952088
:104E7000FBF77DFC40F273110720FBF778FC322032
:104E800002F077FFB8E4A948808841F205518842D2
:104E90007ED100210720FBF76AFC322002F069FF77
:104EA0004FF48E711220FBF762FC0121A420FBF766
:104EB0005EFC0F210820FBF75AFC08210A20FBF7B3
:104EC00056FC08210D20FBF752FC40F20771302000
:104ED000FBF74DFC07213120FBF749FC40F2036151
:104EE0003220FBF744FC4FF4E0613320FBF73FFC3A
:104EF00040F202213420FBF73AFC02213520FBF777
:104F000036FC41F60F713620FBF731FC40F2077199
:104F10003720FBF72CFC00213820FBF728FC002170
:104F20003920FBF724FC40F207713A20FBF71FFC05
:104F300000213B20FBF71BFC07213C20FBF717FC63
:104F400000213D20FBF713FC322002F012FF01216B
:104F50000720FBF70CFC01211720FBF708FC32208F
:104F600002F007FF4FF4BD511020FBF700FC40F2A8
:104F700017211120FBF7FBFB4FF48F711220FBF779
:104F8000F6FB4FF470611320FBF7F1FB002100E00A
:104F900094E02A20FBF7EBFB0A212920FBF7E7FB33
:104FA0004FF49F711220FBF7E2FB00215020FBF72A
:104FB000DEFBEF215120FBF7DAFB00215220FBF74B
:104FC000D6FB40F23F115320FBF7D1FB4FF41C51AD
:104FD0006020FBF7CCFB01216120FBF7C8FB00211F
:104FE0006A20FBF7C4FB00218020FBF7C0FB0021F7
:104FF0008120FBF7BCFB00218220FBF7B8FB0021DE
:105000008320FBF7B4FB00218420FBF7B0FB0021D9
:105010008520FBF7ACFB13219020FBF7A8FB4FF496
:1050200040719220FBF7A3FB05219320FBF79FFB28
:1050300000219520FBF79BFB00219720FBF797FBB6
:1050400000219820FBF793FB4FF480710120FBF7C0
:105050008EFB4FF4E0610220FBF789FB41F238013F
:105060000320FBF784FB00210420FBF780FB0021D9
:105070000C20FBF77CFB00210F20FBF778FB0021C5
:105080002020FBF774FB00212120FBF770FB21217E
:105090000720FBF76CFB142002F06BFE6121072058
:1050A000FBF765FB142002F064FE40F27311072049
:1050B000FBF75DFB142002F05CFE98E41B4880883F
:1050C0004BF2055188427DD100210846FBF74FFB8A
:1050D00000210846FBF74BFB00210846FBF747FB86
:1050E00000210846FBF743FB0121A420FBF73FFB0F
:1050F000142002F03EFE4FF41C516020FBF737FBFA
:1051000040F202210820FBF732FB4FF405713020FA
:10511000FBF72DFB43F215713120FBF728FB40F222
:1051200004613220FBF723FB02E000007C02002038
:1051300040F616613320FBF71AFB42F211213420AE
:10514000FBF715FB4FF4A8513520FBF710FB48F295
:1051500007513620FBF70BFB41F207413720FBF7E5
:1051600006FB41F203413820FBF701FB20213920E7
:10517000FBF7FDFA1A219020FBF7F9FA0021102025
:10518000FBF7F5FA07211120FBF7F1FA00211220B5
:10519000FBF7EDFA00211320FBF7E9FA142002F0E7
:1051A000E8FD4FF4E6611020FBF7E1FA40F2371119
:1051B0001120FBF7DCFA142002F0DBFD4FF4DC7168
:1051C000122000E088E0FBF7D2FA142002F0D1FDB3
:1051D0004FF470611320FBF7CAFA80212A20FBF7F5
:1051E000C6FA48212920FBF7C2FA142002F0C1FDBB
:1051F0004FF480710120FBF7BAFA4FF4E06102200E
:10520000FBF7B5FA41F238010320FBF7B0FA40F2A0
:1052100002210820FBF7ABFA00210A20FBF7A7FACE
:1052200000210C20FBF7A3FA00210D20FBF79FFAC9
:1052300030210E20FBF79BFA00215020FBF797FA54
:10524000EF215120FBF793FA00215220FBF78FFA50
:1052500040F23F115320FBF78AFA4FF41C516020B3
:10526000FBF785FA01216120FBF781FA00216A2012
:10527000FBF77DFA11219020FBF779FA4FF4C0611A
:105280009220FBF774FA40F202419320FBF76FFA89
:1052900002219420FBF76BFA142002F06AFD012131
:1052A0000720FBF764FA142002F063FD6121072058
:1052B000FBF75DFA40F273110720FBF758FA002163
:1052C0002020FBF754FA00212120FBF750FA22217D
:1052D0000020FBF74CFA13E3FE4880884CF205519E
:1052E00088427CD100210846FBF741FA002108469C
:1052F000FBF73DFA142002F03CFD00210846FBF7C5
:1053000036FA00210846FBF732FA00210846FBF77F
:105310002EFA00210846FBF72AFA0121A420FBF708
:1053200026FA142002F025FD4FF41C516020FBF7F3
:105330001EFA40F606010820FBF719FA40F2037145
:105340003020FBF714FA01213120FBF710FA042179
:105350003220FBF70CFA4FF481713320FBF707FA88
:105360004FF440713420FBF702FA40F2031135206C
:10537000FBF7FDF91F213620FBF7F9F940F2037125
:105380003720FBF7F4F901213820FBF7F0F904216D
:105390003920FBF7ECF915219020FBF7E8F94FF4E1
:1053A00082611020FBF7E3F940F247211120FBF75F
:1053B000DEF94FF4DE711220FBF7D9F94FF460618A
:1053C0001320FBF7D4F9782002F0D3FC4FF480715E
:1053D0000120FBF7CCF94FF40071022000E052E00D
:1053E000FBF7C5F941F230010320FBF7C0F90821B2
:1053F0000A20FBF7BCF900210C20FBF7B8F92021AB
:105400000E20FBF7B4F900210F20FBF7B0F90021C3
:105410002020FBF7ACF900212120FBF7A8F93D2162
:105420002A20FBF7A4F9142002F0A3FC2D21292047
:10543000FBF79DF900215020FBF799F94DF2EF01A0
:105440005120FBF794F900215220FBF790F940F22C
:105450003F115320FBF78BF900216120FBF787F9FF
:1054600000216A20FBF783F94FF440719220FBF78B
:105470007EF905219320FBF77AF94FF4807107201C
:10548000FBF775F93CE29348808848F68911884219
:105490007DD101210020FBF76AF94AF6A40103201F
:1054A000FBF765F900210C20FBF761F940F60C01D0
:1054B0000D20FBF75CF94FF42C510E20FBF757F948
:1054C000B0211E20FBF753F942F63F310120FBF7D4
:1054D0004EF94FF4C0610220FBF749F9002110207A
:1054E000FBF745F946F278011120FBF740F900215E
:1054F0000520FBF73CF900210620FBF738F94EF6B2
:105500001C711620FBF733F903211720FBF72FF945
:1055100040F233210720FBF72AF900210B20FBF78B
:1055200026F900210F20FBF722F900214120FBF78B
:105530001EF900214220FBF71AF900214820FBF751
:1055400016F940F23F114920FBF711F900214A20DA
:10555000FBF70DF900214B20FBF709F94FF46F41E0
:105560004420FBF704F900214520FBF700F940F245
:105570003F114620FBF7FBF840F207713020FBF7A4
:10558000F6F84FF401713120FBF7F1F800E03DE04F
:105590004FF401713220FBF7EAF840F20251332058
:1055A000FBF7E5F840F207513420FBF7E0F84FF441
:1055B00001713520FBF7DBF84FF401713620FBF762
:1055C000D6F840F202513720FBF7D1F840F2023111
:1055D0003A20FBF7CCF840F202313B20FBF7C7F84A
:1055E00000212320FBF7C3F800212420FBF7BFF89C
:1055F0004FF400412520FBF7BAF800214F20FBF7BC
:10560000B6F800214E20FBF7B2F879E131488088E6
:1056100044F2315188427CD101210020FBF7A7F8E8
:105620000A2002F0A6FB41F228611020FBF79FF848
:105630000E211220FBF79BF840F639211320FBF7CF
:1056400096F80A2002F095FB40211120FBF78FF815
:1056500050211520FBF78BF80A2002F08AFB1E214F
:105660001220FBF784F80A2002F083FB4FF4B151BB
:105670001020FBF77CF842F639211320FBF777F86E
:105680000A2002F076FB4FF480710120FBF76FF8DF
:105690004FF440710220FBF76AF841F23801032011
:1056A000FBF765F840F202210820FBF760F80821BB
:1056B0000A20FBF75CF800213020FBF758F840F295
:1056C00002413120FBF753F84FF483713220FBF78E
:1056D0004EF801E07C02002040F203513320FBF73A
:1056E00046F84FF482713420FBF741F840F2013163
:1056F0003520FBF73CF840F207713620FBF737F80E
:1057000040F205313720FBF732F84FF402713820B0
:1057100000E040E0FBF72BF840F60B713920FBF777
:1057200026F802214120FBF722F84FF41C5160209B
:10573000FBF71DF801216120FBF719F84FF4047104
:105740009020FBF714F84FF485719220FBF70FF8C7
:1057500004219320FBF70BF84FF48071A020FBF796
:1057600006F801210720FBF702F821210720FAF7AC
:10577000FEFF23210720FAF7FAFF33210720FAF76B
:10578000F6FF40F233110720FAF7F1FF0021A020C5
:10579000FAF7EDFFB4E0F748808844F235518842CB
:1057A000F8D130211520FAF7E2FF10219A20FAF7FC
:1057B000DEFF20211120FAF7DAFF43F22841102002
:1057C000FAF7D5FF02211220FAF7D1FF41F2380192
:1057D0001320FAF7CCFF282002F0CBFA122108465A
:1057E000FAF7C5FF282002F0C4FA43F22041102046
:1057F000FAF7BDFF43F238011320FAF7B8FF46204D
:1058000002F0B7FA00213020FAF7B1FF40F202416E
:105810003120FAF7ACFF40F207313220FAF7A7FF48
:105820004FF441713320FAF7A2FF04213420FAF734
:105830009EFF40F201413520FAF799FF40F20771CF
:105840003620FAF794FF40F205313720FAF78FFF40
:105850004FF4C2613820FAF78AFF4FF4C261392051
:10586000FAF785FF4FF480710120FAF780FF4FF4BB
:1058700040710220FAF77BFF41F230010320FAF772
:1058800076FF40F608010820FAF771FF08210A2088
:10589000FAF76DFF4FF41C516020FAF768FF012101
:1058A0006120FAF764FF4FF49F719020FAF75FFFD1
:1058B0004FF480719220FAF75AFF4FF480719320D1
:1058C000FAF755FF4FF44051A020FAF750FF10218E
:1058D000A320FAF74CFF01210720FAF748FF212106
:1058E0000720FAF744FF23210720FAF740FF33216E
:1058F0000720FAF73CFF40F233110720FAF737FF91
:105900000020FBF778FF01209B4908604FF6FF70ED
:10591000FCF7A1FA08BD2DE9FC5F05460E461746C7
:105920009846DDF83090002001909248808846F635
:105930000401884229D18F488079012825D1AB46BE
:1059400035468C480088C01B401E86B247468948B1
:105950000088A0EB0B00401E1FFA80F8002085494C
:1059600088712A2048812B20888143463A46314657
:105970002846CDF80090FFF7CEFF01207D498871C1
:105980002B2048812A20888134E0781B401C80B27B
:10599000019034462CE021462846FAF743FFFAF7F7
:1059A00010FF4FF0000A1EE04FF48071734802F0C0
:1059B000E2FB4FF40071714802F0DFFB494670488A
:1059C00002F0E2FB80216D4802F0D7FB80216B489A
:1059D00002F0D1FB4FF40071684802F0CCFB0AF1F1
:1059E00001001FFA80FA01988245DDDB601C84B259
:1059F0004445D0DDBDE8FC9F2DE9F84F07460D4634
:105A000090469946DDF828B0A8EB0700401C1FFA25
:105A100080FAA9EB0500401C80B2009000242CE025
:105A2000281981B23846FAF7FDFEFAF7CAFE0026B9
:105A30001FE04FF48071514802F09DFB4FF400715C
:105A40004E4802F09AFB04FB0A603BF810104C48E9
:105A500002F09AFB8021494802F08FFB80214748E1
:105A600002F089FB4FF40071444802F084FB701C83
:105A700086B25645DDDB601C84B200988442CFDBE1
:105A8000BDE8F88F2DE9FF4F85B081468A4600209A
:105A9000049003900798A0EB09050898A0EB0A066C
:105AA000CDF80890CDF804A0002D01DD012705E018
:105AB0000DB9002702E04FF0FF376D42002E02DDE6
:105AC0004FF0010806E016B94FF0000802E04FF071
:105AD000FF387642B54201DD2C4600E034464FF0F7
